{
  "contractName": "TicTacToe",
  "abi": [
    {
      "anonymous": false,
      "inputs": [
        {
          "indexed": false,
          "name": "creator",
          "type": "address"
        },
        {
          "indexed": false,
          "name": "games",
          "type": "int256"
        }
      ],
      "name": "GameCreated",
      "type": "event"
    },
    {
      "anonymous": false,
      "inputs": [],
      "name": "Move",
      "type": "event"
    },
    {
      "constant": false,
      "inputs": [
        {
          "name": "opponent",
          "type": "address"
        }
      ],
      "name": "newGame",
      "outputs": [],
      "payable": true,
      "stateMutability": "payable",
      "type": "function"
    },
    {
      "constant": true,
      "inputs": [
        {
          "name": "otherPlayer",
          "type": "address"
        },
        {
          "name": "owner",
          "type": "bool"
        }
      ],
      "name": "getGameIsClosed",
      "outputs": [
        {
          "name": "",
          "type": "bool"
        }
      ],
      "payable": false,
      "stateMutability": "view",
      "type": "function"
    },
    {
      "constant": true,
      "inputs": [
        {
          "name": "otherPlayer",
          "type": "address"
        },
        {
          "name": "owner",
          "type": "bool"
        }
      ],
      "name": "isGameClosable",
      "outputs": [
        {
          "name": "",
          "type": "bool"
        }
      ],
      "payable": false,
      "stateMutability": "view",
      "type": "function"
    },
    {
      "constant": false,
      "inputs": [
        {
          "name": "otherPlayer",
          "type": "address"
        },
        {
          "name": "owner",
          "type": "bool"
        }
      ],
      "name": "closeGame",
      "outputs": [],
      "payable": false,
      "stateMutability": "nonpayable",
      "type": "function"
    },
    {
      "constant": true,
      "inputs": [
        {
          "name": "player1",
          "type": "address"
        },
        {
          "name": "player2",
          "type": "address"
        }
      ],
      "name": "gameExist",
      "outputs": [
        {
          "name": "",
          "type": "bool"
        }
      ],
      "payable": false,
      "stateMutability": "view",
      "type": "function"
    },
    {
      "constant": true,
      "inputs": [],
      "name": "getOpponents",
      "outputs": [
        {
          "name": "",
          "type": "address[]"
        }
      ],
      "payable": false,
      "stateMutability": "view",
      "type": "function"
    },
    {
      "constant": true,
      "inputs": [
        {
          "name": "otherPlayer",
          "type": "address"
        },
        {
          "name": "owner",
          "type": "bool"
        }
      ],
      "name": "getGameBoard",
      "outputs": [
        {
          "name": "",
          "type": "uint8[3][3]"
        }
      ],
      "payable": false,
      "stateMutability": "view",
      "type": "function"
    },
    {
      "constant": true,
      "inputs": [
        {
          "name": "otherPlayer",
          "type": "address"
        }
      ],
      "name": "getGameBoardCopy",
      "outputs": [
        {
          "name": "",
          "type": "uint8[10]"
        }
      ],
      "payable": false,
      "stateMutability": "view",
      "type": "function"
    },
    {
      "constant": false,
      "inputs": [
        {
          "name": "otherPlayer",
          "type": "address"
        },
        {
          "name": "owner",
          "type": "bool"
        },
        {
          "name": "i",
          "type": "uint8"
        },
        {
          "name": "j",
          "type": "uint8"
        }
      ],
      "name": "move",
      "outputs": [
        {
          "name": "",
          "type": "uint8"
        }
      ],
      "payable": true,
      "stateMutability": "payable",
      "type": "function"
    },
    {
      "constant": true,
      "inputs": [
        {
          "name": "otherPlayer",
          "type": "address"
        },
        {
          "name": "owner",
          "type": "bool"
        }
      ],
      "name": "getGameResult",
      "outputs": [
        {
          "name": "",
          "type": "uint8"
        }
      ],
      "payable": false,
      "stateMutability": "view",
      "type": "function"
    },
    {
      "constant": true,
      "inputs": [
        {
          "name": "otherPlayer",
          "type": "address"
        },
        {
          "name": "owner",
          "type": "bool"
        }
      ],
      "name": "getGameTurn",
      "outputs": [
        {
          "name": "",
          "type": "bool"
        }
      ],
      "payable": false,
      "stateMutability": "view",
      "type": "function"
    },
    {
      "constant": true,
      "inputs": [
        {
          "name": "otherPlayer",
          "type": "address"
        },
        {
          "name": "owner",
          "type": "bool"
        }
      ],
      "name": "getGamePrize",
      "outputs": [
        {
          "name": "",
          "type": "uint256"
        }
      ],
      "payable": false,
      "stateMutability": "view",
      "type": "function"
    },
    {
      "constant": true,
      "inputs": [
        {
          "name": "otherPlayer",
          "type": "address"
        },
        {
          "name": "owner",
          "type": "bool"
        }
      ],
      "name": "getGameAliveTime",
      "outputs": [
        {
          "name": "",
          "type": "uint256"
        }
      ],
      "payable": false,
      "stateMutability": "view",
      "type": "function"
    }
  ],
  "bytecode": "0x6060604052341561000f57600080fd5b612a2c8061001e6000396000f3006060604052600436106100c5576000357c0100000000000000000000000000000000000000000000000000000000900463ffffffff168063084f76c2146100ca57806321351f5414610128578063331587f0146101925780633503b51d146101ea578063393783441461024257806364ff2e501461029e5780636a204605146103135780638120110d1461037e5780639b5f641c146103da578063bb4713101461047d578063c2e0b1e6146104c1578063d1c6c66f146104ef578063f467494d1461055f575b600080fd5b34156100d557600080fd5b61010c600480803573ffffffffffffffffffffffffffffffffffffffff1690602001909190803515159060200190919050506105bb565b604051808260ff1660ff16815260200191505060405180910390f35b341561013357600080fd5b61013b6105e5565b6040518080602001828103825283818151815260200191508051906020019060200280838360005b8381101561017e578082015181840152602081019050610163565b505050509050019250505060405180910390f35b341561019d57600080fd5b6101d4600480803573ffffffffffffffffffffffffffffffffffffffff1690602001909190803515159060200190919050506106b5565b6040518082815260200191505060405180910390f35b34156101f557600080fd5b61022c600480803573ffffffffffffffffffffffffffffffffffffffff1690602001909190803515159060200190919050506106d2565b6040518082815260200191505060405180910390f35b341561024d57600080fd5b610284600480803573ffffffffffffffffffffffffffffffffffffffff1690602001909190803515159060200190919050506106ef565b604051808215151515815260200191505060405180910390f35b34156102a957600080fd5b6102d5600480803573ffffffffffffffffffffffffffffffffffffffff16906020019091905050610719565b6040518082600a60200280838360005b838110156103005780820151818401526020810190506102e5565b5050505090500191505060405180910390f35b610362600480803573ffffffffffffffffffffffffffffffffffffffff16906020019091908035151590602001909190803560ff1690602001909190803560ff16906020019091905050610886565b604051808260ff1660ff16815260200191505060405180910390f35b341561038957600080fd5b6103c0600480803573ffffffffffffffffffffffffffffffffffffffff169060200190919080351515906020019091905050610ccd565b604051808215151515815260200191505060405180910390f35b34156103e557600080fd5b61041c600480803573ffffffffffffffffffffffffffffffffffffffff169060200190919080351515906020019091905050610db6565b604051808260036000925b8184101561046d5782846020020151600360200280838360005b8381101561045c578082015181840152602081019050610441565b505050509050019260010192610427565b9250505091505060405180910390f35b341561048857600080fd5b6104bf600480803573ffffffffffffffffffffffffffffffffffffffff169060200190919080351515906020019091905050610e70565b005b6104ed600480803573ffffffffffffffffffffffffffffffffffffffff16906020019091905050611043565b005b34156104fa57600080fd5b610545600480803573ffffffffffffffffffffffffffffffffffffffff1690602001909190803573ffffffffffffffffffffffffffffffffffffffff16906020019091905050611524565b604051808215151515815260200191505060405180910390f35b341561056a57600080fd5b6105a1600480803573ffffffffffffffffffffffffffffffffffffffff169060200190919080351515906020019091905050611641565b604051808215151515815260200191505060405180910390f35b6000806105c8848461166b565b90508060010160159054906101000a900460ff1691505092915050565b6105ed61264e565b6000803373ffffffffffffffffffffffffffffffffffffffff1673ffffffffffffffffffffffffffffffffffffffff1681526020019081526020016000208054806020026020016040519081016040528092919081815260200182805480156106ab57602002820191906000526020600020905b8160009054906101000a900473ffffffffffffffffffffffffffffffffffffffff1673ffffffffffffffffffffffffffffffffffffffff1681526020019060010190808311610661575b5050505050905090565b6000806106c2848461166b565b9050806007015491505092915050565b6000806106df848461166b565b9050806005015491505092915050565b6000806106fc848461166b565b90508060010160149054906101000a900460ff1691505092915050565b610721612662565b600061072b612662565b600080600061073987611967565b94508460000160009054906101000a900473ffffffffffffffffffffffffffffffffffffffff1673ffffffffffffffffffffffffffffffffffffffff163373ffffffffffffffffffffffffffffffffffffffff1614156107ba576001846000600a811015156107a457fe5b602002019060ff16908160ff16815250506107dd565b6002846000600a811015156107cb57fe5b602002019060ff16908160ff16815250505b60019250600091505b600360ff1682101561087957600090505b600360ff1681101561086c57846002018260038110151561081457fe5b018160038110151561082257fe5b602091828204019190069054906101000a900460ff168484600a8110151561084657fe5b602002019060ff16908160ff1681525050828060010193505080806001019150506107f7565b81806001019250506107e6565b8395505050505050919050565b6000806000610895878761166b565b91508160020190506108a682611c50565b80156108b6575081600701543414155b156108c057600080fd5b8160060160009054906101000a900460ff16806108f2575060008260010160159054906101000a900460ff1660ff1614155b80610915575085801561091457508160010160149054906101000a900460ff16155b5b8061093857508515801561093757508160010160149054906101000a900460ff165b5b156109465760049250610cc3565b6000818660ff1660038110151561095957fe5b018560ff1660038110151561096a57fe5b602091828204019190069054906101000a900460ff1660ff161415610cbe5785156109d8576001818660ff166003811015156109a257fe5b018560ff166003811015156109b357fe5b602091828204019190066101000a81548160ff021916908360ff160217905550610a1d565b6002818660ff166003811015156109eb57fe5b018560ff166003811015156109fc57fe5b602091828204019190066101000a81548160ff021916908360ff1602179055505b8160010160149054906101000a900460ff16158260010160146101000a81548160ff021916908315150217905550428260050181905550610a5d82611ce6565b8260010160156101000a81548160ff021916908360ff16021790555060018260010160159054906101000a900460ff1660ff161415610b2f578515610ae5573373ffffffffffffffffffffffffffffffffffffffff166108fc83600701549081150290604051600060405180830381858888f193505050501515610ae057600080fd5b610b2a565b8673ffffffffffffffffffffffffffffffffffffffff166108fc83600701549081150290604051600060405180830381858888f193505050501515610b2957600080fd5b5b610ca5565b60028260010160159054906101000a900460ff1660ff161415610be5578515610b9b578673ffffffffffffffffffffffffffffffffffffffff166108fc83600701549081150290604051600060405180830381858888f193505050501515610b9657600080fd5b610be0565b3373ffffffffffffffffffffffffffffffffffffffff166108fc83600701549081150290604051600060405180830381858888f193505050501515610bdf57600080fd5b5b610ca4565b60038260010160159054906101000a900460ff1660ff161415610ca3578673ffffffffffffffffffffffffffffffffffffffff166108fc60028460070154811515610c2c57fe5b049081150290604051600060405180830381858888f193505050501515610c5257600080fd5b3373ffffffffffffffffffffffffffffffffffffffff166108fc60028460070154811515610c7c57fe5b049081150290604051600060405180830381858888f193505050501515610ca257600080fd5b5b5b5b8160010160159054906101000a900460ff169250610cc3565b600492505b5050949350505050565b600080610cda848461166b565b90508060060160009054906101000a900460ff1615610cfc5760009150610daf565b60008160010160159054906101000a900460ff1660ff16141515610d235760019150610daf565b610d2c81611c50565b8015610d3c575060001515831515145b15610d4a5760019150610daf565b61070881600501544203118015610d9c5750828015610d7857508060010160149054906101000a900460ff16155b80610d9b575082158015610d9a57508060010160149054906101000a900460ff165b5b5b15610daa5760019150610daf565b600091505b5092915050565b610dbe61268e565b6000610dca848461166b565b905080600201600380602002604051908101604052809291906000905b82821015610e6357838201600380602002604051908101604052809291908260038015610e4f576020028201916000905b82829054906101000a900460ff1660ff1681526020019060010190602082600001049283019260010382029150808411610e185790505b505050505081526020019060010190610de7565b5050505091505092915050565b6000610e7c838361166b565b90508060060160009054906101000a900460ff16151515610e9957fe5b60008160010160159054906101000a900460ff1660ff16141515610ed55760018160060160006101000a81548160ff0219169083151502179055505b610ede81611c50565b8015610eee575060001515821515145b15610f115760018160060160006101000a81548160ff0219169083151502179055505b61070881600501544203118015610f635750818015610f3f57508060010160149054906101000a900460ff16155b80610f62575081158015610f6157508060010160149054906101000a900460ff165b5b5b15610f865760018160060160006101000a81548160ff0219169083151502179055505b8060060160009054906101000a900460ff161561103e578273ffffffffffffffffffffffffffffffffffffffff166108fc60028360070154811515610fc757fe5b049081150290604051600060405180830381858888f193505050501515610fed57600080fd5b3373ffffffffffffffffffffffffffffffffffffffff166108fc6002836007015481151561101757fe5b049081150290604051600060405180830381858888f19350505050151561103d57600080fd5b5b505050565b60003373ffffffffffffffffffffffffffffffffffffffff168273ffffffffffffffffffffffffffffffffffffffff1614151561151b576110843383611524565b156110a25761109282611967565b905061109d81612520565b611516565b600160003373ffffffffffffffffffffffffffffffffffffffff1673ffffffffffffffffffffffffffffffffffffffff16815260200190815260200160002080548060010182816110f391906126bd565b91600052602060002090600802016000610100604051908101604052803373ffffffffffffffffffffffffffffffffffffffff1681526020018673ffffffffffffffffffffffffffffffffffffffff168152602001600015158152602001600060ff168152602001606060405190810160405280606060405190810160405280600060ff168152602001600060ff168152602001600060ff168152508152602001606060405190810160405280600060ff168152602001600060ff168152602001600060ff168152508152602001606060405190810160405280600060ff168152602001600060ff168152602001600060ff16815250815250815260200142815260200160001515815260200160023402815250909190915060008201518160000160006101000a81548173ffffffffffffffffffffffffffffffffffffffff021916908373ffffffffffffffffffffffffffffffffffffffff16021790555060208201518160010160006101000a81548173ffffffffffffffffffffffffffffffffffffffff021916908373ffffffffffffffffffffffffffffffffffffffff16021790555060408201518160010160146101000a81548160ff02191690831515021790555060608201518160010160156101000a81548160ff021916908360ff1602179055506080820151816002019060036112f29291906126ef565b5060a0820151816005015560c08201518160060160006101000a81548160ff02191690831515021790555060e082015181600701555050506000803373ffffffffffffffffffffffffffffffffffffffff1673ffffffffffffffffffffffffffffffffffffffff168152602001908152602001600020805480600101828161137a919061273d565b9160005260206000209001600084909190916101000a81548173ffffffffffffffffffffffffffffffffffffffff021916908373ffffffffffffffffffffffffffffffffffffffff160217905550506000808373ffffffffffffffffffffffffffffffffffffffff1673ffffffffffffffffffffffffffffffffffffffff1681526020019081526020016000208054806001018281611419919061273d565b9160005260206000209001600033909190916101000a81548173ffffffffffffffffffffffffffffffffffffffff021916908373ffffffffffffffffffffffffffffffffffffffff160217905550507f8f11bc54c09654cfb87fb21c6f12920e57ac18114610498f2413c940d8062a4433600160003373ffffffffffffffffffffffffffffffffffffffff1673ffffffffffffffffffffffffffffffffffffffff16815260200190815260200160002080549050604051808373ffffffffffffffffffffffffffffffffffffffff1673ffffffffffffffffffffffffffffffffffffffff1681526020018281526020019250505060405180910390a15b611520565b600080fd5b5050565b600080600090505b6000808573ffffffffffffffffffffffffffffffffffffffff1673ffffffffffffffffffffffffffffffffffffffff16815260200190815260200160002080549050811015611635578273ffffffffffffffffffffffffffffffffffffffff166000808673ffffffffffffffffffffffffffffffffffffffff1673ffffffffffffffffffffffffffffffffffffffff168152602001908152602001600020828154811015156115d757fe5b906000526020600020900160009054906101000a900473ffffffffffffffffffffffffffffffffffffffff1673ffffffffffffffffffffffffffffffffffffffff161415611628576001915061163a565b808060010191505061152c565b600091505b5092915050565b60008061164e848461166b565b90508060060160009054906101000a900460ff1691505092915050565b60008060008084156117e757600160003373ffffffffffffffffffffffffffffffffffffffff1673ffffffffffffffffffffffffffffffffffffffff1681526020019081526020016000209250600091505b82805490508210156117e2573373ffffffffffffffffffffffffffffffffffffffff1683838154811015156116ee57fe5b906000526020600020906008020160000160009054906101000a900473ffffffffffffffffffffffffffffffffffffffff1673ffffffffffffffffffffffffffffffffffffffff161480156117ad57508573ffffffffffffffffffffffffffffffffffffffff16838381548110151561176357fe5b906000526020600020906008020160010160009054906101000a900473ffffffffffffffffffffffffffffffffffffffff1673ffffffffffffffffffffffffffffffffffffffff16145b156117d55782828154811015156117c057fe5b9060005260206000209060080201935061195e565b81806001019250506116bd565b611953565b600160008773ffffffffffffffffffffffffffffffffffffffff1673ffffffffffffffffffffffffffffffffffffffff1681526020019081526020016000209250600090505b8280549050811015611952578573ffffffffffffffffffffffffffffffffffffffff16838281548110151561185e57fe5b906000526020600020906008020160000160009054906101000a900473ffffffffffffffffffffffffffffffffffffffff1673ffffffffffffffffffffffffffffffffffffffff1614801561191d57503373ffffffffffffffffffffffffffffffffffffffff1683828154811015156118d357fe5b906000526020600020906008020160010160009054906101000a900473ffffffffffffffffffffffffffffffffffffffff1673ffffffffffffffffffffffffffffffffffffffff16145b1561194557828181548110151561193057fe5b9060005260206000209060080201935061195e565b808060010191505061182d565b5b6000151561195d57fe5b5b50505092915050565b600080600080600160003373ffffffffffffffffffffffffffffffffffffffff1673ffffffffffffffffffffffffffffffffffffffff1681526020019081526020016000209250600091505b8280549050821015611ad8573373ffffffffffffffffffffffffffffffffffffffff1683838154811015156119e457fe5b906000526020600020906008020160000160009054906101000a900473ffffffffffffffffffffffffffffffffffffffff1673ffffffffffffffffffffffffffffffffffffffff16148015611aa357508473ffffffffffffffffffffffffffffffffffffffff168383815481101515611a5957fe5b906000526020600020906008020160010160009054906101000a900473ffffffffffffffffffffffffffffffffffffffff1673ffffffffffffffffffffffffffffffffffffffff16145b15611acb578282815481101515611ab657fe5b90600052602060002090600802019350611c48565b81806001019250506119b3565b600160008673ffffffffffffffffffffffffffffffffffffffff1673ffffffffffffffffffffffffffffffffffffffff1681526020019081526020016000209250600090505b8280549050811015611c43578473ffffffffffffffffffffffffffffffffffffffff168382815481101515611b4f57fe5b906000526020600020906008020160000160009054906101000a900473ffffffffffffffffffffffffffffffffffffffff1673ffffffffffffffffffffffffffffffffffffffff16148015611c0e57503373ffffffffffffffffffffffffffffffffffffffff168382815481101515611bc457fe5b906000526020600020906008020160010160009054906101000a900473ffffffffffffffffffffffffffffffffffffffff1673ffffffffffffffffffffffffffffffffffffffff16145b15611c36578281815481101515611c2157fe5b90600052602060002090600802019350611c48565b8080600101915050611b1e565b600080fd5b505050919050565b60008060008091505b600360ff16821015611cda57600090505b600360ff16811015611ccd5760008460020183600381101515611c8957fe5b0182600381101515611c9757fe5b602091828204019190069054906101000a900460ff1660ff16141515611cc05760009250611cdf565b8080600101915050611c6a565b8180600101925050611c59565b600192505b5050919050565b60008060008084600201925060019150600090505b600360ff168160ff1610156121e6576001838260ff16600381101515611d1d57fe5b016000600381101515611d2c57fe5b602091828204019190069054906101000a900460ff1660ff16148015611d8a57506001838260ff16600381101515611d6057fe5b016001600381101515611d6f57fe5b602091828204019190069054906101000a900460ff1660ff16145b8015611dce57506001838260ff16600381101515611da457fe5b016002600381101515611db357fe5b602091828204019190069054906101000a900460ff1660ff16145b80611e9957506001836000600381101515611de557fe5b018260ff16600381101515611df657fe5b602091828204019190069054906101000a900460ff1660ff16148015611e5457506001836001600381101515611e2857fe5b018260ff16600381101515611e3957fe5b602091828204019190069054906101000a900460ff1660ff16145b8015611e9857506001836002600381101515611e6c57fe5b018260ff16600381101515611e7d57fe5b602091828204019190069054906101000a900460ff1660ff16145b5b15611ea75760019350612518565b6002838260ff16600381101515611eba57fe5b016000600381101515611ec957fe5b602091828204019190069054906101000a900460ff1660ff16148015611f2757506002838260ff16600381101515611efd57fe5b016001600381101515611f0c57fe5b602091828204019190069054906101000a900460ff1660ff16145b8015611f6b57506002838260ff16600381101515611f4157fe5b016002600381101515611f5057fe5b602091828204019190069054906101000a900460ff1660ff16145b8061203657506002836000600381101515611f8257fe5b018260ff16600381101515611f9357fe5b602091828204019190069054906101000a900460ff1660ff16148015611ff157506002836001600381101515611fc557fe5b018260ff16600381101515611fd657fe5b602091828204019190069054906101000a900460ff1660ff16145b80156120355750600283600260038110151561200957fe5b018260ff1660038110151561201a57fe5b602091828204019190069054906101000a900460ff1660ff16145b5b156120445760029350612518565b6000838260ff1660038110151561205757fe5b01600060038110151561206657fe5b602091828204019190069054906101000a900460ff1660ff1614806120c357506000838260ff1660038110151561209957fe5b0160016003811015156120a857fe5b602091828204019190069054906101000a900460ff1660ff16145b8061210657506000838260ff166003811015156120dc57fe5b0160026003811015156120eb57fe5b602091828204019190069054906101000a900460ff1660ff16145b806121495750600083600060038110151561211d57fe5b018260ff1660038110151561212e57fe5b602091828204019190069054906101000a900460ff1660ff16145b8061218c5750600083600160038110151561216057fe5b018260ff1660038110151561217157fe5b602091828204019190069054906101000a900460ff1660ff16145b806121cf575060008360026003811015156121a357fe5b018260ff166003811015156121b457fe5b602091828204019190069054906101000a900460ff1660ff16145b156121d957600091505b8080600101915050611cfb565b60018360006003811015156121f757fe5b01600060038110151561220657fe5b602091828204019190069054906101000a900460ff1660ff161480156122625750600183600160038110151561223857fe5b01600160038110151561224757fe5b602091828204019190069054906101000a900460ff1660ff16145b80156122a45750600183600260038110151561227a57fe5b01600260038110151561228957fe5b602091828204019190069054906101000a900460ff1660ff16145b80612369575060018360006003811015156122bb57fe5b0160026003811015156122ca57fe5b602091828204019190069054906101000a900460ff1660ff16148015612326575060018360016003811015156122fc57fe5b01600160038110151561230b57fe5b602091828204019190069054906101000a900460ff1660ff16145b80156123685750600183600260038110151561233e57fe5b01600060038110151561234d57fe5b602091828204019190069054906101000a900460ff1660ff16145b5b156123775760019350612518565b600283600060038110151561238857fe5b01600060038110151561239757fe5b602091828204019190069054906101000a900460ff1660ff161480156123f3575060028360016003811015156123c957fe5b0160016003811015156123d857fe5b602091828204019190069054906101000a900460ff1660ff16145b80156124355750600283600260038110151561240b57fe5b01600260038110151561241a57fe5b602091828204019190069054906101000a900460ff1660ff16145b806124fa5750600283600060038110151561244c57fe5b01600260038110151561245b57fe5b602091828204019190069054906101000a900460ff1660ff161480156124b75750600283600160038110151561248d57fe5b01600160038110151561249c57fe5b602091828204019190069054906101000a900460ff1660ff16145b80156124f9575060028360026003811015156124cf57fe5b0160006003811015156124de57fe5b602091828204019190069054906101000a900460ff1660ff16145b5b156125085760029350612518565b81156125175760039350612518565b5b505050919050565b8060060160009054906101000a900460ff16151561253a57fe5b60008160010160146101000a81548160ff02191690831515021790555060008160010160156101000a81548160ff021916908360ff160217905550606060405190810160405280606060405190810160405280600060ff168152602001600060ff168152602001600060ff168152508152602001606060405190810160405280600060ff168152602001600060ff168152602001600060ff168152508152602001606060405190810160405280600060ff168152602001600060ff168152602001600060ff1681525081525081600201906003612618929190612769565b5042816005018190555060008160060160006101000a81548160ff02191690831515021790555060023402816007018190555050565b602060405190810160405280600081525090565b61014060405190810160405280600a905b600060ff168152602001906001900390816126735790505090565b610120604051908101604052806003905b6126a76127b7565b81526020019060019003908161269f5790505090565b8154818355818115116126ea576008028160080283600052602060002091820191016126e991906127e2565b5b505050565b826003810192821561272c579160200282015b8281111561272b5782518290600361271b9291906128ab565b5091602001919060010190612702565b5b5090506127399190612945565b5090565b815481835581811511612764578183600052602060002091820191016127639190612971565b5b505050565b82600381019282156127a6579160200282015b828111156127a5578251829060036127959291906128ab565b509160200191906001019061277c565b5b5090506127b39190612945565b5090565b6060604051908101604052806003905b600060ff168152602001906001900390816127c75790505090565b6128a891905b808211156128a457600080820160006101000a81549073ffffffffffffffffffffffffffffffffffffffff02191690556001820160006101000a81549073ffffffffffffffffffffffffffffffffffffffff02191690556001820160146101000a81549060ff02191690556001820160156101000a81549060ff02191690556002820160006128779190612996565b60058201600090556006820160006101000a81549060ff02191690556007820160009055506008016127e8565b5090565b90565b826003601f016020900481019282156129345791602002820160005b8382111561290557835183826101000a81548160ff021916908360ff16021790555092602001926001016020816000010492830192600103026128c7565b80156129325782816101000a81549060ff0219169055600101602081600001049283019260010302612905565b505b50905061294191906129c9565b5090565b61296e91905b8082111561296a576000818161296191906129f9565b5060010161294b565b5090565b90565b61299391905b8082111561298f576000816000905550600101612977565b5090565b90565b50600081816129a591906129f9565b50600101600081816129b791906129f9565b5060010160006129c791906129f9565b565b6129f691905b808211156129f257600081816101000a81549060ff0219169055506001016129cf565b5090565b90565b50600090555600a165627a7a72305820e4ae718ca5ee684feb7d19354be93f3a8a8f59be91cd41de06cbdae6138f76060029",
  "source": "//The owner is player1\npragma solidity ^0.4.17;\n    contract TicTacToe {\n    \n    uint8 constant BOARD_SIZE = 3;\n\n    event GameCreated(\n        address creator,\n        int games\n    );\n    \n\n    event Move(\n\n    );\n    \n    mapping(address => address[]) opponentsMapping;\n\n    mapping(address => Game[]) gameMapping;\n    \n    struct Game {\n        address player1;\n        address player2;\n        bool ownerTurn;\n        uint8 result;           // 0 for nothing, 1 for player1 wins, 2 for player2 wins, 3 for draw\n        uint8[BOARD_SIZE][BOARD_SIZE] board;\n        uint aliveTime;\n        bool isClosed;\n        uint prize;\n    }\n\n    function newGame(address opponent) public payable {\n    if(opponent != msg.sender) {\n        Game storage game;\n        if(gameExist(msg.sender, opponent)) {\n            game = getGameStructSlow(opponent);\n            resetGame(game); //only succeed if game.isClosed == true\n        } else {\n            //the game does not exist can create\n            gameMapping[msg.sender].push(Game(msg.sender, opponent, false, 0,\n                [[0, 0, 0],[0, 0, 0],[0, 0, 0]], now, false, msg.value * 2));\n            opponentsMapping[msg.sender].push(opponent);\n            opponentsMapping[opponent].push(msg.sender);\n            GameCreated(msg.sender, int256(gameMapping[msg.sender].length));\n        }\n    } else {\n        //cannot create a game with yourself\n        revert();\n    }\n  }\n\n    function resetGame(Game storage game) private {\n        assert(game.isClosed);\n        game.ownerTurn = false;\n        game.result = 0;\n        game.board = [[0, 0, 0],[0, 0, 0],[0, 0, 0]];\n        game.aliveTime = now;\n        game.isClosed = false;\n        game.prize = msg.value * 2;\n  }\n\n  function getGameIsClosed(address otherPlayer, bool owner) public view returns (bool) {\n      Game storage game = getGameStruct(otherPlayer, owner);\n      return game.isClosed;\n  }\n\n  function isGameClosable(address otherPlayer, bool owner) public view returns (bool) {\n       Game storage game = getGameStruct(otherPlayer, owner);\n      if(game.isClosed)\n          return false;\n      //if the game is finished, you can close the game\n      if(game.result != 0) {\n          return true;\n      }\n\n      //if no move has been made and you did not create this game, you can close the game\n      if(isBoardEmpty(game) && owner == false) {\n          return true;\n      }\n\n      //if the last move was more than 30 minutes ago and it's not your turn, you can close the game\n      if(now - game.aliveTime > 30 minutes && ( ( (owner) && (!game.ownerTurn) ) || ( (!owner) && (game.ownerTurn) ) ) ) {\n          return true;\n      }\n\n      return false;\n  }\n\n  function closeGame(address otherPlayer, bool owner) public {\n      Game storage game = getGameStruct(otherPlayer, owner);\n      assert(!game.isClosed);\n\n      //if the game is finished, you can close the game\n      if(game.result != 0) {\n          game.isClosed = true;\n      }\n\n      //if no move has been made and you did not create this game, you can close the game\n      if(isBoardEmpty(game) && owner == false) {\n          game.isClosed = true;\n      }\n\n      //if the last move was more than 30 minutes ago and it's not your turn, you can close the game\n      if(now - game.aliveTime > 30 minutes && ( ( (owner) && (!game.ownerTurn) ) || ( (!owner) && (game.ownerTurn) ) ) ) {\n          game.isClosed = true;\n      }\n      \n      if(game.isClosed) {\n        otherPlayer.transfer(game.prize / uint(2));\n        msg.sender.transfer(game.prize / uint(2));\n      }\n  }\n\n  function isBoardEmpty(Game storage game) private view returns (bool) {\n      for(uint i = 0; i < BOARD_SIZE; i ++) {\n          for(uint j = 0; j < BOARD_SIZE; j ++) {\n              if(game.board[i][j] != 0)\n                return false;\n          }\n      }\n      return true;\n  }\n\n  function gameExist(address player1, address player2) public view returns (bool) {\n      for(uint i = 0; i < opponentsMapping[player1].length; i ++) {\n          if(opponentsMapping[player1][i] == player2)\n            return true;\n      }\n      return false;\n  }\n\n  function getOpponents() public view returns (address[]) {\n      return opponentsMapping[msg.sender];\n  }\n\n  function getGameBoard(address otherPlayer, bool owner) public view returns (uint8[BOARD_SIZE][BOARD_SIZE]) {\n    Game storage game = getGameStruct(otherPlayer, owner);\n    return game.board;\n  }\n  \n  function getGameStruct(address otherPlayer, bool owner) private view returns (Game storage) {\n    Game[] storage games;\n    if (owner) {\n        games = gameMapping[msg.sender];\n        for (uint i = 0; i < games.length; i++) {\n            if (games[i].player1 == msg.sender && games[i].player2 == otherPlayer)\n                return games[i];\n        }\n    } else {\n        games = gameMapping[otherPlayer];\n        for (uint j = 0; j < games.length; j++) {\n            if ( games[j].player1 == otherPlayer && games[j].player2 == msg.sender)\n                return games[j];\n        }\n    }\n    \n    assert(false);\n  }\n\n  function getGameBoardCopy(address otherPlayer)  public view returns (uint8[BOARD_SIZE * BOARD_SIZE + 1]) {\n    Game storage game = getGameStructSlow(otherPlayer);\n    uint8[BOARD_SIZE * BOARD_SIZE + 1] memory output;\n    if(msg.sender == game.player1) {\n        output[0] = 1;\n    } else {\n        output[0] = 2;\n    }\n    \n    uint k = 1;\n    for(uint i = 0; i < BOARD_SIZE; i ++) {\n        for(uint j = 0; j < BOARD_SIZE; j ++) {\n            output[k] = game.board[i][j];\n            k ++;\n        }\n    }\n\n    return output;\n  }\n\n  function getGameStructSlow(address otherPlayer) private view returns (Game storage) {\n    Game[] storage games;\n    games = gameMapping[msg.sender];\n    for (uint i = 0; i < games.length; i++) {\n        if (games[i].player1 == msg.sender && games[i].player2 == otherPlayer) {\n            return games[i];\n        }\n    }\n    games = gameMapping[otherPlayer];\n    for (uint j = 0; j < games.length; j++) {\n        if ( games[j].player1 == otherPlayer && games[j].player2 == msg.sender) {\n            return games[j];\n        }\n    }\n    revert();\n  }\n\n  /** \n    returns \n        0 on successufl move, nobody won yet\n        1 on player1 victory\n        2 on player2 victory\n        3 on draw\n        4 on error\n  */\n  function move(address otherPlayer, bool owner, uint8 i, uint8 j) public payable returns (uint8) {\n    Game storage game = getGameStruct(otherPlayer, owner);\n\n\n    uint8[BOARD_SIZE][BOARD_SIZE] storage board = game.board;\n\n    //the first message must pay the prize\n    if(isBoardEmpty(game) && msg.value != game.prize) {\n        revert();\n    }\n    \n    if(game.isClosed || game.result != 0 || ( (owner) && (!game.ownerTurn) ) || ( (!owner) && (game.ownerTurn) ) ) {\n        return 4;\n    }\n    if(board[i][j] == 0) {\n        if(owner) {\n            board[i][j] = 1;\n        } else {\n            board[i][j] = 2;\n        }\n        game.ownerTurn = !game.ownerTurn;\n        \n        game.aliveTime = now;\n\n        game.result = isGameFinished(game);\n\n        if(game.result == 1) {\n            if(owner) {\n                msg.sender.transfer(game.prize);\n            } else {\n                otherPlayer.transfer(game.prize);\n            }\n        } else if(game.result == 2) {\n            if(owner) {\n                otherPlayer.transfer(game.prize);\n            } else {\n                msg.sender.transfer(game.prize);\n            }\n        } else if(game.result == 3) {\n            otherPlayer.transfer(game.prize / 2);\n            msg.sender.transfer(game.prize / 2);\n        }\n\n        return game.result;\n    } \n    \n    return 4;\n  }\n  \n  function getGameResult(address otherPlayer, bool owner) public view returns (uint8) {\n      Game storage game = getGameStruct(otherPlayer, owner);\n      return game.result;\n  }\n\n  function getGameTurn(address otherPlayer, bool owner) public view returns (bool) {\n      Game storage game = getGameStruct(otherPlayer, owner);\n      return game.ownerTurn;\n  }\n\n  function getGamePrize(address otherPlayer, bool owner) public view returns (uint) {\n      Game storage game = getGameStruct(otherPlayer, owner);\n      return game.prize;\n  }\n\n  function getGameAliveTime(address otherPlayer, bool owner) public view returns (uint) {\n      Game storage game = getGameStruct(otherPlayer, owner);\n      return game.aliveTime;\n  }\n  \n\n    /** \n        returns \n            0 on nobody won yet\n            1 on player1 victory\n            2 on player2 victory\n            3 on draw\n    */\n    function isGameFinished(Game storage game) private view returns (uint8) {\n        uint8[BOARD_SIZE][BOARD_SIZE] storage board = game.board;\n        bool canBeDraw = true;\n        for(uint8 i = 0; i < BOARD_SIZE; i ++) {\n            //if row i or column i is all 1s, 1 wins\n            if( (board[i][0] == 1 && board[i][1] == 1 && board[i][2] == 1) || \n                (board[0][i] == 1 && board[1][i] == 1 && board[2][i] == 1) )\n                return 1;\n            \n            //if row i or column i is all 2s, 2 wins\n            if( (board[i][0] == 2 && board[i][1] == 2 && board[i][2] == 2) || \n                (board[0][i] == 2 && board[1][i] == 2 && board[2][i] == 2) )\n                return 2;\n            \n            //if a move can be stil made, the game is not a draw\n            if( board[i][0] == 0 || board[i][1] == 0 || board[i][2] == 0 || \n                board[0][i] == 0 || board[1][i] == 0 || board[2][i] == 0 )\n                canBeDraw = false;\n        }\n      \n        //if one of the diagonals is all 1s, 1 wins\n        if( (board[0][0] == 1 && board[1][1] == 1 && board[2][2] == 1) || \n            (board[0][2] == 1 && board[1][1] == 1 && board[2][0] == 1) )\n            return 1;\n            \n        //if one of the diagonals is all 2s, 2 wins \n        if( (board[0][0] == 2 && board[1][1] == 2 && board[2][2] == 2) || \n            (board[0][2] == 2 && board[1][1] == 2 && board[2][0] == 2) )\n            return 2;\n            \n        if(canBeDraw)\n            return 3;\n    }\n}",
  "sourcePath": "/home/requiel/gitRepo/EthTicTacToe/contracts/TicTacToe.sol",
  "compiler": {
    "name": "solc",
    "version": "0.4.19+commit.c4cbbb05.Emscripten.clang"
  },
  "schemaVersion": "1.0.1",
  "updatedAt": "2018-02-26T18:54:21.254Z"
}